:100000000C9465000C946F000C946F000C946F00BE
:100010000C946F000C946F000C946F000C946F00A4
:100020000C946F000C946F000C946F000C946F0094
:100030000C946F000C946F000C946F000C946F0084
:100040000C946F000C946F000C946F000C946F0074
:100050000C946F0000010101010101010101010186
:100060000101010101010101010101010101010180
:100070000101010101010101010101010101010170
:100080000101010101010101010101010101010160
:10009000010101010101C500C700CA00CC00CE006A
:1000A000D000D200D400D600D800DA00DC00DE0098
:1000B000E000E200E400E600E800EA00ED00F00005
:1000C000F200F500F800FB00FD0011241FBECFE593
:1000D000D8E0DEBFCDBF0E9471000C943B010C94B0
:1000E0000000CF93DF93CDB7DEB7E4970FB6F89457
:1000F000DEBF0FBECDBF8EE781BB12BAFE013196C7
:1001000080E090E07F0140E280FD06C09C013595D3
:1001100027952F5B208301C040830196319684335D
:10012000910591F720E030E084E3C82ED12C46E41D
:100130001CE50CE794E5B92E54E4A52E68E3962E51
:1001400070E3872EE8E57E2EF8E76F2EA0E75A2EA3
:10015000B8E44B2E88E6382E90E6292EC901B60168
:100160000E940D018E0D9F1DDC018C91992787FD4A
:100170009095A92FB92F80978B33910508F041C036
:10018000865D9F4FFC010C94210180E401C080E555
:1001900082BB37C022BA35C032BA33C042BA31C08E
:1001A00052BA2FC062BA2DC072BA2BC082BA29C00F
:1001B00092BA27C0A2BA25C0B2BA23C0F4E616C0CC
:1001C0005CE617C08CE4E4CF94E718C002BB19C00A
:1001D00012BB17C0A4E3A2BB14C0BCE3B2BB11C0E6
:1001E00042BB0FC0E6E5E2BB0CC0FAE3F2BB09C0BC
:1001F00056E652BB06C08EE6CBCF9EE492BB01C052
:1002000012BA2F5F3F4FAFE9B6E8E1E0A150B0402E
:10021000E040E1F700C00000A1CF97FB072E16F4E5
:10022000009407D077FD09D00E94270107FC05D074
:100230003EF4909581959F4F0895709561957F4FFD
:100240000895EE0FFF1F0590F491E02D0994AA1B6D
:10025000BB1B51E107C0AA1FBB1FA617B70710F0B1
:10026000A61BB70B881F991F5A95A9F780959095E3
:0A027000BC01CD010895F894FFCF02
:00000001FF
